S00E000053656E736F722E737265639C
S11300000C9438040C944A040C944A040C944A0446
S11300100C944A040C944A040C944A040C944A0424
S11300200C944A040C944A040C944A040C944A0414
S11300300C944A040C944A040C947A040C944A04D4
S11300400C944A040C944A040C944A040C944A04F4
S11300500C944A04FFFFFFFFFFFFFFFFFFFFFFFFBA
S1130060FFFFFFFFFFFFFFFFFFFFFFFFFFFFFFFF9C
S1130070FFFFFFFFFFFFFFFFFFFFFFFFFFFFFFFF8C
S1130080FFFFFFFFFFFFFFFFFFFFFFFFFFFFFFFF7C
S1130090FFFFFFFFFFFFFFFFFFFFFFFFFFFFFFFF6C
S11300A0FFFFFFFFFFFFFFFFFFFFFFFFFFFFFFFF5C
S11300B0FFFFFFFFFFFFFFFFFFFFFFFFFFFFFFFF4C
S11300C0FFFFFFFFFFFFFFFFFFFFFFFFFFFFFFFF3C
S11300D0FFFFFFFFFFFFFFFFFFFFFFFFFFFFFFFF2C
S11300E0FFFFFFFFFFFFFFFFFFFFFFFFFFFFFFFF1C
S11300F0FFFFFFFFFFFFFFFFFFFFFFFFFFFFFFFF0C
S1130100FFFFFF7F3F9FCF6733190C0C0C0C0C0CC7
S11301100C0C0C0C0C0C0C0C0C0C0C0C0C0C1933E7
S113012067CF9F3F7FFFFFFFFFFFFFFFFFFFFFFF43
S1130130FFFFFFFFFFFFFFFFFFFFFFFFFFFFFFFFCB
S1130140FFFFFFFFFFFFFFFFFFFFFFFFFFFFFFFFBB
S1130150FFFFFFFFFFFFFFFFFFFFFFFFFFFFFFFFAB
S1130160FFFFFFFFFFFFFFFFFFFFFFFFFFFFFFFF9B
S1130170FFFFFFFFFFFFFFFFFFFFFFFF3F1FCFE773
S113018033190C0603010000000000000000000009
S1130190000000000000000000000000000000005B
S11301A000000103060C1933E7CF1F3FFFFFFFFFD9
S11301B0FFFFFFFFFFFFFFFFFFFFFFFFFFFFFFFF4B
S11301C0FFFFFFFFFFFFFFFFFFFFFFFFFFFFFFFF3B
S11301D0FFFFFFFFFFFFFFFFFFFFFFFFFFFFFFFF2B
S11301E0FFFFFFFFFFFFFFFFFFFFFFFFFFFFFFFF1B
S11301F0FFFFFFFFFFFFFFFFFFFFFFFF0000FFFF09
S113020000000000F0D89898983000181818F8F8F2
S113021018181880E07018181830F0E00000F8186A
S11302201818B0F000000000FFFF0000FFFFFFFF00
S1130230FFFFFFFFFFFFFFFFFFFFFFFFFFFFFFFFCA
S1130240FFFFFFFFFFFFFFFFFFFFFFFFFFFFFFFFBA
S1130250FFFFFFFFFFFFFFFFFFFFFFFFFFFFFFFFAA
S1130260FFFFFFFFFFFFFFFFFFFFFFFFFFFFFFFF9A
S1130270FFFFFFFFFFFFFFFFFFFFFFFF0000FFFF88
S1130280000000000C081919090F060000000F0FE8
S113029000000001070E0818180C0F0700000F01DA
S11302A00101010100000000FFFF0000FFFFFFFF4C
S11302B0FFFFFFFFFFFFFFFFFFFFFFFFFFFFFFFF4A
S11302C0FFFFFFFFFFFFFFFFFFFFFFFFFFFFFFFF3A
S11302D0FFFFFFFFFFFFFFFFFFFFFFFFFFFFFFFF2A
S11302E0FFFFFFFFFFFFFFFFFFFFFFFFFFFFFFFF1A
S11302F0FFFFFFFFFFFFFFFFFFFFFFFFFCF8F3E738
S1130300CC983060C08000000000000000000000B5
S113031000000000000000000000000000000000D9
S1130320000080C0603098CCE7F3F8FCFFFFFFFFCB
S1130330FFFFFFFFFFFFFFFFFFFFFFFFFFFFFFFFC9
S1130340FFFFFFFFFFFFFFFFFFFFFFFFFFFFFFFFB9
S1130350FFFFFFFFFFFFFFFFFFFFFFFFFFFFFFFFA9
S1130360FFFFFFFFFFFFFFFFFFFFFFFFFFFFFFFF99
S1130370FFFFFFFFFFFFFFFFFFFFFFFFFFFFFFFF89
S1130380FFFFFFFEFCF9F3E6CC983030303030301C
S1130390303030303030303030303030303098CC55
S11303A0E6F3F9FCFEFFFFFFFFFFFFFFFFFFFFFF88
S11303B0FFFFFFFFFFFFFFFFFFFFFFFFFFFFFFFF49
S11303C0FFFFFFFFFFFFFFFFFFFFFFFFFFFFFFFF39
S11303D0FFFFFFFFFFFFFFFFFFFFFFFFFFFFFFFF29
S11303E0FFFFFFFFFFFFFFFFFFFFFFFFFFFFFFFF19
S11303F0FFFFFFFFFFFFFFFFFFFFFFFFFFFFFFFF09
S1130400FFFFFFFFFFFFFFFFFFFFFFFFFFFFFFFFF8
S1130410FFFFFFFFFFFFFFFFFFFFFFFFFFFFFFFFE8
S1130420FFFFFFFFFFFFFFFFFFFFFFFFFFFFFFFFD8
S1130430FFFFFFFFFFFFFFFFFFFFFFFFFFFFFFFFC8
S1130440FFFFFFFFFFFFFFFFFFFFFFFFFFFFFFFFB8
S1130450FFFFFFFFFFFFFFFFFFFFFFFFFFFFFFFFA8
S1130460FFFFFFFFFFFFFFFFFFFFFFFFFFFFFFFF98
S11304700000000000000000000000000000000078
S11304800000000000000000000000000000000068
S11304900000000000000000000000000000000058
S11304A00000000000000000000000000000000048
S11304B0000000000000000000FFFFFFFFFFFFFF3F
S11304C0FFFFFFFFFFFFFFFFFFFFFFFFFFFFFFFF38
S11304D0FFFFFFFFFFFFFFFFFFFFFFFFFFFFFFFF28
S11304E0FFFFFFFFFFFFFFFFFFFFFFFFFFFFFFFF18
S11304F000000000000000000000000000000000F8
S113050000000000000000000000000000000000E7
S113051000000000000000000000000000000000D7
S113052000000000000000000000000000000000C7
S1130530000000000000000000FFFFFFFFFFFFFFBE
S1130540FFFFFFFFFFFFFFFFFFFFFFFFFFFFFFFFB7
S1130550FFFFFFFFFFFFFFFFFFFFFFFFFFFFFFFFA7
S1130560FFFFFFFFFFFFFFFFFFFFFFFFFFFFFFFF97
S11305700000000000000000000000000000000077
S113058000000000000080C0E0E0F0F0F0F8F8F8AF
S1130590F8F8F0F0F0E0C0800000000080C0E0E077
S11305A0F0F0F0F0F0F8F8F0F0F0F0E0C0C0000087
S11305B0000000000000000000FFFFFFFFFFFFFF3E
S11305C0FFFFFFFFFFFFFFFFFFFFFFFFFFFFFFFF37
S11305D0FFFFFFFFFFFFFFFFFFFFFFFFFFFFFFFF27
S11305E0FFFFFFFFFFFFFFFFFFFFFFFFFFFFFFFF17
S11305F00010101010101212129292929292929273
S11306000202E0F8FEFFFFFF7F0F070303C1E1E1F1
S1130610E1E3E7E7E7E7E3E3E3F8FEFFFFFF7F0F4C
S113062007030301010101030307FFFFFFFFFFFEAF
S1130630F00000000000000000FFFFFFFFFFFFFFCD
S1130640FFFFFFFFFFFFFFFFFFFFFFFFFFFFFFFFB6
S1130650FFFFFFFFFFFFFFFFFFFFFFFFFFFFFFFFA6
S1130660FFFFFFFFFFFFFFFFFFFFFFFFFFFFFFFF96
S11306700000000000000000000000000000000076
S113068000000F3F7FFFFFFFFEF8F0E0E3E3E3E34A
S1130690F3FBFFFFFF7F3F1F0F3F7FFFFFFFFEF8CE
S11306A0F0E0E0E0E0E0F0F0F8FEFFFF7F3F1F073E
S11306B0000000000000000000FFFFFFFFFFFFFF3D
S11306C0FFFFFFFFFFFFFFFFFFFFFFFFFFFFFFFF36
S11306D0FFFFFFFFFFFFFFFFFFFFFFFFFFFFFFFF26
S11306E0FFFFFFFFFFFFFFFFFFFFFFFFFFFFFFFF16
S11306F000000000000000000000000000000000F6
S113070000000000000001030307070707070707AD
S113071003030301000000000000000001030307BD
S11307200707070707070303030101000000000090
S1130730000000000000000000FFFFFFFFFFFFFFBC
S1130740FFFFFFFFFFFFFFFFFFFFFFFFFFFFFFFFB5
S1130750FFFFFFFFFFFFFFFFFFFFFFFFFFFFFFFFA5
S1130760FFFFFFFFFFFFFFFFFFFFFFFFFFFFFFFF95
S11307700000000000000000000000000000000075
S11307800000000000000000000000000000000065
S11307900000000000000000000000000000000055
S11307A00000000000000000000000000000000045
S11307B0000000000000000000FFFFFFFFFFFFFF3C
S11307C0FFFFFFFFFFFFFFFFFFFFFFFFFFFFFFFF35
S11307D0FFFFFFFFFFFFFFFFFFFFFFFFFFFFFFFF25
S11307E0FFFFFFFFFFFFFFFFFFFFFFFFFFFFFFFF15
S11307F000000000000000000000000000000000F5
S113080000000000000000000000000000000000E4
S113081000000000000000000000000000000000D4
S113082000000000000000000000000000000000C4
S1130830000000000000000000FFFFFFFFFFFFFFBB
S1130840FFFFFFFFFFFFFFFFFFFFFFFFFFFFFFFFB4
S1130850FFFFFFFFAE2000B0C8001040813FA1A6FB
S1130860A83FA4D300D5F0D922DA12DB208D14AF2F
S113087011241FBECFE5D4E0DEBFCDBF20E0A0E64B
S1130880B0E001C01D92A836B207E1F70E94BF0490
S11308900C94F9070C9400002AB128612AB920B5F8
S11308A0266820BDDC01CB01880F991FAA1FBB1F3E
S11308B0880F991FAA1FBB1F9C01AD01220F331F74
S11308C0441F551F220F331F441F551F60E072E160
S11308D08AE790E00E94D7078FEF820F89B9DA0187
S11308E0C9010197A109B109892F9A2FAB2FBB2701
S11308F080BD08951F920F920FB60F9211248F930B
S11309009F938091600090916100009779F484B185
S113091095B1909365008093640081E087B981E08C
S113092090E090936100809360001FC08130910536
S113093079F484B195B1909367008093660082E066
S113094087B982E090E090936100809360000DC0CD
S1130950029759F484B195B1909363008093620037
S113096017B8109261001092600086B1806486B955
S11309709F918F910F900FBE0F901F90189560E874
S113098075E280E090E00E944C0417B886B1886854
S113099086B986B1806486B983B7816683BF85B51D
S11309A0816685BD87B3886087BB81B3806881BB5E
S11309B00E94F5050E944C0580E00E94AD058FE180
S11309C09EE40197F1F700C0000078946091640000
S11309D070916500072E000C880B990B0E94B506D8
S11309E020E030E040EA50E40E946A0720E030EC66
S11309F04FE754E40E9441066B017C018FE19EE4C1
S1130A000197F1F700C000008FE19EE40197F1F730
S1130A1000C000008FE19EE40197F1F700C00000E0
S1130A2020E030E040E85FE3C701B6010E943C06E5
S1130A3088235CF404E514E028E040E860E080E00A
S1130A400E94B30584E68CBF83BD20E030E040E81B
S1130A5050E4C701B6010E94650718160CF0B6CF22
S1130A6004E510E028E040E860E080E00E94B3057F
S1130A701CBE13BCABCFCF93C82F0E94FC0588E7E4
S1130A800E94160680E00E9416068C2F0E9416060D
S1130A900E940906CF910895CF93C0E008C0EC2FBF
S1130AA0F0E0EC5AF74F84910E943B05CF5FCC31C4
S1130AB0B0F3CF910895CF93DF93C82FD62F0E9420
S1130AC0FC0588E70E94160680E00E94160680EB6B
S1130AD08D0F0E9416068C2F82958F7080610E9464
S1130AE016068C2F8F700E9416060E940906DF914D
S1130AF0CF910895EF92FF920F931F93CF93DF93BB
S1130B00E82EF62E042F122F60E080E00E945B0591
S1130B100E94FC0588E70E94160680E40E941606DF
S1130B20C0E0D0E00DC08E2D0E9416068F2D0E94CD
S1130B301606802F0E941606812F0E941606219603
S1130B40CF3FD10581F378F30E940906DF91CF915D
S1130B501F910F91FF90EF900895282F482F682F31
S1130B600E947A0508958F929F92AF92BF92CF927E
S1130B70DF92EF92FF920F931F93CF93DF93982E00
S1130B80C62ED42E822E5801C0E0D0E01FC06C2D9A
S1130B90892D0E945B050E94FC0588E70E941606C9
S1130BA080E40E941606192D0CC07E018FEFE81A0E
S1130BB0F80AF501EC0FFD1F84910E9416061F5FD1
S1130BC0E7011D1590F30E940906C394C814F8F2B6
S1130BD0DF91CF911F910F91FF90EF90DF90CF9015
S1130BE0BF90AF909F908F90089584B3826084BB30
S1130BF084B3816084BB089585B3816085BB85B36C
S1130C00826085BB85B38D7F85BB85B38E7F85BBB5
S1130C10089585B38E7F85BB85B38D7F85BB85B3F2
S1130C20816085BB85B3826085BB089590E018C060
S1130C30282F30E0092E02C0220F331F0A94E2F756
S1130C4027FF04C025B3226025BB03C025B32D7F35
S1130C5025BB25B3216025BB25B32E7F25BB9F5F14
S1130C60983030F385B3826085BB85B3816085BBE2
S1130C7085B38E7F85BB08950E94F00608F481E059
S1130C8008950E9455060C942B070E94240758F0DF
S1130C900E941D0740F029F45F3F29F00C941407CB
S1130CA051110C945F070C941A070E943C0768F3D7
S1130CB09923B1F3552391F3951B550BBB27AA2711
S1130CC062177307840738F09F5F5F4F220F331F4B
S1130CD0441FAA1FA9F335D00E2E3AF0E0E832D013
S1130CE091505040E695001CCAF72BD0FE2F29D016
S1130CF0660F771F881FBB1F261737074807AB07E8
S1130D00B0E809F0BB0B802DBF01FF2793585F4F5C
S1130D103AF09E3F510578F00C9414070C945F0749
S1130D205F3FE4F3983ED4F3869577956795B7953E
S1130D30F7959F5FC9F7880F911D9695879597F949
S1130D400895E1E0660F771F881FBB1F62177307C2
S1130D508407BA0720F0621B730B840BBA0BEE1FD7
S1130D6088F7E0950895E89409C097FB3EF49095C0
S1130D708095709561957F4F8F4F9F4F9923A9F070
S1130D80F92F96E9BB279395F695879577956795FF
S1130D90B795F111F8CFFAF4BB0F11F460FF1BC043
S1130DA06F5F7F4F8F4F9F4F16C0882311F096E9D6
S1130DB011C0772321F09EE8872F762F05C0662384
S1130DC071F096E8862F70E060E02AF09A95660F3D
S1130DD0771F881FDAF7880F9695879597F90895F6
S1130DE0990F0008550FAA0BE0E8FEEF1616170638
S1130DF0E807F907C0F012161306E407F50798F0A0
S1130E00621B730B840B950B39F40A2661F0232BB8
S1130E10242B252B21F408950A2609F4A140A69534
S1130E208FEF811D811D089597F99F6780E870E019
S1130E3060E008959FEF80EC089500240A9416164C
S1130E40170618060906089500240A9412161306B4
S1130E50140605060895092E0394000C11F4882342
S1130E6052F0BB0F40F4BF2B11F460FF04C06F5F5E
S1130E707F4F8F4F9F4F089557FD9058440F551F34
S1130E8059F05F3F71F04795880F97FB991F61F008
S1130E909F3F79F087950895121613061406551F7F
S1130EA0F2CF4695F1DF08C0161617061806991FEB
S1130EB0F1CF86957105610508940895E894BB27E0
S1130EC066277727CB0197F908950E94F00608F466
S1130ED08FEF08950E947D070C942B070E941D0735
S1130EE038F00E94240720F0952311F00C94140785
S1130EF00C941A0711240C945F070E943C0770F3AA
S1130F00959FC1F3950F50E0551F629FF001729FAA
S1130F10BB27F00DB11D639FAA27F00DB11DAA1FB9
S1130F20649F6627B00DA11D661F829F2227B00D06
S1130F30A11D621F739FB00DA11D621F839FA00D91
S1130F40611D221F749F3327A00D611D231F849FE1
S1130F50600D211D822F762F6A2F11249F57504038
S1130F609AF0F1F088234AF0EE0FFF1FBB1F661FB3
S1130F70771F881F91505040A9F79E3F510580F07C
S1130F800C9414070C945F075F3FE4F3983ED4F38A
S1130F90869577956795B795F795E7959F5FC1F720
S1130FA0FE2B880F911D9695879597F90895A1E2D8
S1130FB01A2EAA1BBB1BFD010DC0AA1FBB1FEE1FCF
S1130FC0FF1FA217B307E407F50720F0A21BB30B1A
S1130FD0E40BF50B661F771F881F991F1A9469F796
S1130FE060957095809590959B01AC01BD01CF01F2
S1090FF00895F894FFCF00
S9030000FC
